:100000000C9462000C948A000C948A000C948A0070
:100010000C948A000C948A000C948A000C948A0038
:100020000C948A000C948A000C948A000C948A0028
:100030000C948A000C948A000C948A000C948A0018
:100040000C94FB060C948A000C946B070C944507E7
:100050000C948A000C948A000C948A000C948A00F8
:100060000C948A000C948A000000000023002600F3
:10007000290000000000240027002A0000000000E2
:10008000250028002B0004040404040404040202D4
:100090000202020203030303030301020408102007
:1000A0004080010204081020010204081020000012
:1000B0000008000201000003040700000000000027
:1000C00000009D0711241FBECFEFD8E0DEBFCDBFDB
:1000D00013E0A0E0B1E0ECE1F6E102C005900D9282
:1000E000A435B107D9F725E0A4E5B3E001C01D921E
:1000F000A235B207E1F710E0C2E6D0E004C02197D4
:10010000FE010E94010BC136D107C9F70E94D60734
:100110000C940C0B0C94000084E480937C00809180
:100120007A00806480937A0080917A0086FDFCCF0B
:10013000809178002091790090E0922B089583308F
:1001400081F028F4813099F08230A1F00895873051
:10015000A9F08830B9F08430D1F4809180008F7D8F
:1001600003C0809180008F7780938000089584B5CC
:100170008F7702C084B58F7D84BD08958091B000D3
:100180008F7703C08091B0008F7D8093B000089579
:100190001F93CF93DF93282F30E0F901E255FF4FF3
:1001A0008491F901E656FF4FD491F901EA57FF4FC8
:1001B000C491CC23C1F0162F81110E949F00EC2F17
:1001C000F0E0EE0FFF1FE458FF4FA591B4919FB7E9
:1001D000F894111104C08C91D095D82302C0EC91F1
:1001E000DE2BDC939FBFDF91CF911F910895EF929B
:1001F000FF920F931F93CF93DF93182F062F8091B9
:100200005105811771F160E080914F050E94C8008F
:10021000C0E0D0E0E12EF12CB7010C2E02C07595A4
:1002200067950A94E2F76170E0914C05F0914D05F5
:10023000EC0FFD1F80810E94C8002196C830D105B7
:1002400059F760E080914E050E94C8008BE090E075
:100250000197F1F761E080914E050E94C80010936C
:10026000510561E080914F050E94C800C0E0D0E0D8
:1002700010E0B8010C2E02C0759567950A94E2F75C
:100280006170E0914C05F0914D05EC0FFD1F8081F0
:100290000E94C8002196C830D10559F760E08091CE
:1002A0004E050E94C8008FE590E00197F1F761E0EC
:1002B00080914E05DF91CF911F910F91FF90EF90AC
:1002C0000C94C80090915005992321F08B3038F0A0
:1002D00090E01CC08930D0F460317105BCF421E19C
:1002E000829FF0011124EF56FB4F718360832FE052
:1002F0002383992311F0863048F494E0660F771F2A
:100300009A95E1F7805D0E94F70091E0892F0895AA
:10031000CF93DF93C82F80935005882311F060E2BC
:1003200001C060E08EE00E94F700C11102C0D1E17F
:1003300035C0C0E1D0E0BE018C2F8A500E9462011E
:100340002196C531D105B9F760E286E10E94F70038
:1003500060E587E10E94F70060EC88E10E94F70009
:1003600067E086E20E94F70065E087E20E94F700FE
:1003700061E088E2DF91CF910C94F7008BE0C81721
:1003800098F463E070E08C2F0E946201DC9FF00122
:100390001124EF56FB4F14861386CF5F80915005D2
:1003A0008111ECCF89E0EBCFDF91CF910895CF930E
:1003B000DF9390E0FC01E656FF4F2491FC01EA57E1
:1003C000FF4F8491882361F190E0880F991FFC0111
:1003D000EE58FF4FC591D491FC01E458FF4FA59111
:1003E000B491611109C09FB7F89488812095822348
:1003F0008883EC912E230BC0623061F49FB7F89490
:100400008881322F309583238883EC912E2B2C9377
:100410009FBF06C08FB7F894E8812E2B28838FBF2B
:10042000DF91CF910895CF92DF92EF92FF920F93D9
:100430001F93CF93DF936C017A018B01C0E0D0E072
:10044000CE15DF0581F0D8016D918D01D601ED91BA
:10045000FC910190F081E02DC6010995892B11F0E6
:100460002196EECF7E01C701DF91CF911F910F91B1
:10047000FF90EF90DF90CF900895089580E090E096
:100480000895FC01538D448D252F30E0842F90E09A
:10049000821B930B541710F0CF960895019708957F
:1004A000FC01918D828D981761F0828DDF01A80F7C
:1004B000B11D5D968C91928D9F5F9F73928F90E09E
:1004C00008958FEF9FEF0895FC01918D828D98170D
:1004D00031F0828DE80FF11D858D90E008958FEF4A
:1004E0009FEF0895FC01918D228D892F90E0805C13
:1004F0009F4F821B91098F739927089584EF93E092
:100500000E94720221E0892B09F420E0822F0895D5
:10051000FC01848DDF01A80FB11DA35ABF4F2C91A0
:10052000848D90E001968F739927848FA689B7896F
:100530002C93A089B1898C91837080648C93938D66
:10054000848D981306C00288F389E02D80818F7D09
:1005500080830895EF92FF920F931F93CF93DF93C1
:10056000EC0181E0888F9B8D8C8D981305C0E88904
:10057000F989808185FD26C0F62E0B8D10E00F5F76
:100580001F4F0F731127E02E8C8DE8120CC00FB691
:1005900007FCFACFE889F989808185FFF5CFCE0184
:1005A0000E948802F1CF8B8DFE01E80FF11DE35A06
:1005B000FF4FF0829FB7F8940B8FEA89FB89808107
:1005C00080620AC09FB7F894EE89FF896083E8894A
:1005D000F98980818370806480839FBF81E090E08F
:1005E000DF91CF911F910F91FF90EF900895CF93DE
:1005F000DF93EC01888D8823C9F0EA89FB8980812B
:1006000085FD05C0A889B9898C9186FD0FC00FB6FC
:1006100007FCF5CF808185FFF2CFA889B9898C913D
:1006200085FFEDCFCE010E948802E7CFDF91CF9109
:10063000089580E090E0892B29F00E947E028111CC
:100640000C9400000895CF92DF92EF92FF920F93E7
:100650001F93CF9384E5E82E83E0F82E00E011E0AD
:10066000C6E09BE9C92ED12C6C2F61708CE00E94F2
:10067000C80061E08AE00E94C80061E08BE00E944F
:10068000C800C6010197F1F70E948C009C0191E01F
:100690002115310509F090E0F7018681891741F0B5
:1006A0009683232B29F4F801968181E0892786839C
:1006B000CF5FFFEFEF1AFF0A0F5F1F4FC830A1F6A1
:1006C000CF911F910F91FF90EF90DF90CF90089501
:1006D000009769F0FC0101900020E9F73197AF0124
:1006E000481B590BBC0184EF93E00C94130280E08B
:1006F00090E008950C9468038F929F92AF92BF92FE
:100700000F931F93CF93DF93CDB7DEB7A1970FB6AB
:10071000F894DEBF0FBECDBF19A2423008F44AE004
:100720008E010F5D1F4F842E912CA12CB12CA501A1
:1007300094010E94D00AE62FB901CA0101501109A3
:10074000EA3014F4E05D01C0E95CD801EC93232B9E
:10075000242B252B61F7C8010E946803A1960FB6D0
:10076000F894DEBF0FBECDBFDF91CF911F910F91E7
:10077000BF90AF909F908F900895CF92DF92EF92AD
:10078000FF92CF93DF936B017C016DE284EF93E0E6
:100790000E94AA02EC0166277727CB016C197D091C
:1007A0008E099F094AE00E947C038C0F9D1FDF91F8
:1007B000CF91FF90EF90DF90CF900895CF93DF938C
:1007C000BC01990F880B990B97FF03C00E94BD03D2
:1007D00003C04AE00E947C03EC018AE193E00E949E
:1007E00068038C0F9D1FDF91CF910895EF92FF92C8
:1007F0001F93CF93DF93EC018130910579F47EEA6A
:10080000E72E72E0F72E10E0F70161917F01812F52
:100810000E94F7001F5F1933B9F747C08230910576
:1008200079F464E7E62E62E0F62E10E0F7016191BC
:100830007F01812F0E94F7001F5F1933B9F735C080
:100840008330910579F45AE3E52E52E0F52E10E05D
:10085000F70161917F01812F0E94F7001F5F19331B
:10086000B9F740C08430910579F440E0E42E42E0CD
:10087000F42E10E0F70161917F01812F0E94F700B3
:100880001F5F1933B9F740C0059779F436ECE32EB2
:1008900031E0F32E10E0F70161917F01812F0E947A
:1008A000F7001F5F1933B9F711C0C630D105D1F475
:1008B0002CE8E22E21E0F22E10E0F70161917F0199
:1008C000812F0E94F7001F5F1933B9F78DE193E084
:1008D0000E947A03CE01DF91CF911F91FF90EF909C
:1008E0000C94DE03C730D10579F492E5E92E91E04E
:1008F000F92E10E0F70161917F01812F0E94F7002E
:100900001F5F1933B9F7E2CFC830D105F9F688E196
:10091000E82E81E0F82E10E0F70161917F01812F30
:100920000E94F7001F5F1933B9F7D0CF2F923F9283
:100930004F925F926F927F928F929F92AF92BF92EF
:10094000CF92DF92EF92FF920F931F93CF9326ECFB
:10095000222E23E0322E06EB13E038EEA32E32E0F7
:10096000B32E46ED842E43E0942E412C512C3201BF
:10097000C0E0F401E080F180F101E192F1921F0109
:100980006C2F61708CE00E94C800B201759567956C
:1009900061708AE00E94C800B201759567957595EF
:1009A00067958BE00E94C80083E790E00197F1F71C
:1009B0000E948C009C012E193F0937FF03C031951E
:1009C00021953109243031050CF4C701F4018193DC
:1009D00091934F01E816F90609F43FC0F501C08074
:1009E000D1800D2C000CEE08FF0822813381A90173
:1009F000330F660B770B9A01AB012C193D094E0999
:100A00005F09DC010E94C80A2FEF33E040E050E0AC
:100A10000E949E0ADA01C9018C0D9D1DAE1DBF1DED
:100A2000F801918380834AE0C301B2010E947C03F4
:100A300085E393E00E947A03F801808191810E940E
:100A4000DE03C1110AC0F801E080F18086E293E084
:100A50000E947A03C7010E94DE03CF5F0E5F1F4F23
:100A6000F4E0AF0EB11C8FEF481A580A680A780AF2
:100A7000C63009F07ECFCF911F910F91FF90EF907C
:100A8000DF90CF90BF90AF909F908F907F906F90AE
:100A90005F904F903F902F900895CF92DF92EF920A
:100AA000FF92CF93DF9384EF93E00E9472021816B7
:100AB00019060CF085C084EF93E00E945002843642
:100AC00009F04DC087E393E00E9468038AE193E058
:100AD0000E946803C5E6D3E0699170E080E090E091
:100AE0004AE00E947C038EE393E00E947A0383E055
:100AF000CE39D80789F780E493E00E947A03C6EDE7
:100B0000D3E0C12CD12C760186E493E00E947A03D5
:100B10004AE0C701B6010E947C038CE493E00E9486
:100B20007A0369917991072E000C880B990B97FF36
:100B300003C00E94BD0303C04AE00E947C038EE311
:100B400093E00E947A038FEFC81AD80AE80AF80ADD
:100B500088E0C816D104E104F104B1F631C0813354
:100B600019F481E090E009C0823319F482E090E04A
:100B700004C0833329F483E090E00E94F60320C090
:100B8000843319F484E090E013C0853319F485E0D0
:100B900090E00EC0863319F486E090E009C08733F8
:100BA00019F487E090E004C0883351F488E090E0C5
:100BB000DF91CF91FF90EF90DF90CF900C94F603F0
:100BC000DF91CF91FF90EF90DF90CF9008950E943A
:100BD000070B4F925F926F927F928F929F92AF928C
:100BE000BF92EF92FF920F931F93CF938091EA03EE
:100BF000811123C02FB7F8948091F0039091F103F5
:100C0000A091F203B091F3032FBF8093E60390937A
:100C1000E703A093E803B093E9030E9496040E94BF
:100C200023030E944D050E94B8068091B60390915F
:100C3000B70390931201809311018091B5036091E5
:100C4000BC037091BD03680F711D072E000C880B4B
:100C5000990B611571058105910511F00E94950AA6
:100C600081E00E948801E12CF12C812C912C54010F
:100C70008A948091BA039091BB038E159F050CF462
:100C800048C04090BE035090BF03052C000C66087E
:100C90007708411451046104710441F00E94470A2D
:100CA000A30192010E949E0A2B013C018091BE0388
:100CB0009091BF0397FD01969595879591958195A4
:100CC0009109480E591E8091B803480E042D10E07A
:100CD0008091C0039091C1039C01205231090B59AE
:100CE0001C4F2D33310540F00E94470AA5019401A5
:100CF0000E949E0AC62F03C0F801C081C8276C2F2E
:100D0000842D0E94F700F801C083FFEFEF1AFF0A5D
:100D1000B0CF8091C0039091C103813491051CF440
:100D200020E130E002C028E030E08091B5038F5F21
:100D3000482F50E0421753071CF48093B50302C0BC
:100D40001092B503809110018F5F8B3008F086E020
:100D500080931001CF911F910F91FF90EF90BF9062
:100D6000AF909F908F907F906F905F904F9008957D
:100D7000CF93DF938091D6039091D7038232914035
:100D800024F481E08093EA0302C01092EA03809188
:100D9000EA03882369F1EBEBF0E08491E7EAF0E005
:100DA000D491E3E9F0E0C491CC23A1F081110E9439
:100DB0009F00EC2FF0E0EE0FFF1FE859FF4FA591C9
:100DC000B491EC91ED2331E020E009F430E0832F81
:100DD000922F02C080E090E0C82FC170892B31F0C3
:100DE00080916403811102C00E94E905C0936403ED
:100DF000DF91CF9108951F920F920FB60F92112499
:100E00002F933F938F939F93AF93BF938091F00362
:100E10009091F103A091F203B091F3033091EF03AD
:100E200023E0230F2D3720F40196A11DB11D05C02D
:100E300026E8230F0296A11DB11D2093EF03809396
:100E4000F0039093F103A093F203B093F303809126
:100E5000EB039091EC03A091ED03B091EE030196AA
:100E6000A11DB11D8093EB039093EC03A093ED03C0
:100E7000B093EE03BF91AF919F918F913F912F91CE
:100E80000F900FBE0F901F9018951F920F920FB6E4
:100E90000F9211242F933F934F935F936F937F9300
:100EA0008F939F93AF93BF93EF93FF9384EF93E060
:100EB0000E948802FF91EF91BF91AF919F918F9116
:100EC0007F916F915F914F913F912F910F900FBE46
:100ED0000F901F9018951F920F920FB60F9211242A
:100EE0002F938F939F93EF93FF93E0910404F091DE
:100EF00005048081E0910A04F0910B0482FD12C088
:100F0000908180910D048F5F8F7320910E04821762
:100F100051F0E0910D04F0E0EC50FC4F958F809380
:100F20000D0401C08081FF91EF919F918F912F91CE
:100F30000F900FBE0F901F901895E4EFF3E013820F
:100F4000128288EE93E0A0E0B0E084839583A683CC
:100F5000B78384E093E09183808385EC90E095876C
:100F6000848784EC90E09787868780EC90E0918B73
:100F7000808B81EC90E0938B828B82EC90E0958B60
:100F8000848B86EC90E0978B868B118E128E138E5D
:100F9000148E82E193E090934D0580934C0585E09B
:100FA00080934E0584E080934F050895789484B52E
:100FB000826084BD84B5816084BD85B5826085BD55
:100FC00085B5816085BD80916E00816080936E00E3
:100FD00010928100809181008260809381008091D5
:100FE0008100816080938100809180008160809386
:100FF00080008091B10084608093B1008091B00046
:1010000081608093B00080917A00846080937A0040
:1010100080917A00826080937A0080917A0081606A
:1010200080937A0080917A00806880937A00109291
:10103000C100E0910404F091050482E08083E09116
:101040000004F09101041082E0910204F091030485
:1010500080E1808310920C04E0910804F09109046F
:1010600086E08083E0910604F0910704808180612E
:101070008083E0910604F09107048081886080837A
:10108000E0910604F0910704808180688083E091FC
:101090000604F091070480818F7D8083C0E0D0E05A
:1010A000E0914C05F0914D05EC0FFD1F61E0808152
:1010B0000E94D7012196C830D10591F761E0809157
:1010C0004E050E94D70161E080914F050E94D70133
:1010D00061E080914E050E94C80060E08FE00E94B0
:1010E000F70080E00E94880181E00E94880161E0B1
:1010F0008CE00E94D70161E08AE00E94D70161E0A4
:101100008BE00E94D70160E082E10E94D70160E09D
:101110008DE00E94D70161E083E00E94D70151E198
:10112000E52EC1E0D0E06FE0D62ECC24C394F12CA4
:1011300080915005811102C089E001C08BE0F81652
:1011400008F08CC00F2D10E0E09EF001E19EF00D44
:101150001124EF56FB4F83859485019709F07CC0DD
:1011600081859285892B09F477C08FB7F8944091D7
:10117000F0035091F1036091F2037091F3038FBF7C
:1011800085859685A785B089481B590B6A0B7B0B13
:1011900081859285A0E0B0E0481759076A077B0770
:1011A00008F45AC080915005811103C098E09F1542
:1011B00028F1E09EF001E19EF00D1124EF56FB4F67
:1011C0001382882309F4A8C085E08F1508F0A4C015
:1011D000808191818331910508F4B1C083319105FB
:1011E00009F4C0C0449709F0CBC08091D8046D2D9C
:1011F000681B46E3B42E8B2D0E94F70080915005AA
:10120000882321F085E08F1508F4BCC0E09EF00132
:10121000E19EF00D1124EF56FB4F8281811180E297
:10122000E09EF001E19EF00D1124EF56FB4F668128
:101230006770660F682B8781908590FD616080E202
:101240008F0D0E94F700E09EF001E19EF00D112449
:10125000EF56FB4F14861386F3946ACF8091EA030E
:10126000882349F00E9496040E9423030E944D05A2
:101270000E94B8064EC0809113018823E1F02FB779
:10128000F8948091F0039091F103A091F203B09152
:10129000F3032FBF4091E6035091E7036091E80309
:1012A0007091E903841B950BA60BB70B4497A1051E
:1012B000B10508F096C08FB7F8944091F0035091B3
:1012C000F1036091F2037091F3038FBF8091E60305
:1012D0009091E703A091E803B091E903481B590BF3
:1012E0006A0B7B0B8091110190911201A0E0B0E09C
:1012F000481759076A077B0760F00E94E905C0920A
:10130000130161E08DE00E94C80061E083E00E946B
:10131000C8000E9419030BCF80E3B82EBF0CE09EDB
:10132000F001E19EF00D1124EF56FB4F60817181B9
:1013300094E0660F771F9A95E1F76F605CCF81317B
:10134000910570F08091B6046D2D681B6295607FE9
:101350008091A5049D2D981B692B28E3B22E4BCFBD
:10136000409771F4809194046D2D681B6295607FA5
:101370008091C7049D2D981B692B37E3B32E3BCF7B
:1013800060E039CFE09EF001E19EF00D1124EF56B0
:10139000FB4F80819181482F47708F3F910519F451
:1013A00060E28EE04ECFE2E0F5E020E030E080E267
:1013B00060817181672B39F0BE01022E01C0660F7A
:1013C0000A94EAF7862B2F5F3F4F7196253031053F
:1013D00079F7BE0101C0660F4A95EAF76095682368
:1013E000E0CF1092130160E08DE00E94C80060E041
:1013F00083E00E94C8005FCF8F929F92AF92BF920E
:10140000CF92DF92EF92FF92CF93DF93EC0168814E
:1014100079818A819B81611571058105910521F48E
:1014200064E279ED8BE597E02DE133EF41E050E0A8
:101430000E949E0A49015A019B01AC01A7EAB1E44E
:101440000E94BD0A6B017C01ACEEB4EFA5019401D2
:101450000E94CB0ADC01CB018C0D9D1DAE1DBF1D72
:10146000B7FF03C00197A109B04888839983AA8375
:10147000BB83BC01CD019F77DF91CF91FF90EF90AF
:10148000DF90CF90BF90AF909F908F9008958F92F4
:101490009F92AF92BF92CF92DF92EF92FF926091B4
:1014A0001401709115018091160190911701611539
:1014B00071058105910521F464E279ED8BE597E0F2
:1014C0002DE133EF41E050E00E949E0A49015A01AC
:1014D0009B01AC01A7EAB1E40E94BD0A6B017C014B
:1014E000ACEEB4EFA50194010E94CB0ADC01CB0164
:1014F0008C0D9D1DAE1DBF1DB7FF03C00197A10937
:10150000B0488093140190931501A0931601B093F5
:101510001701BC01CD019F77FF90EF90DF90CF9036
:10152000BF90AF909F908F90089560931401709337
:10153000150180931601909317010895052E97FBCE
:101540001EF400940E94B50A57FD07D00E94D00AED
:1015500007FC03D04EF40C94B50A50954095309595
:1015600021953F4F4F4F5F4F08959095809570950F
:1015700061957F4F8F4F9F4F08950E94F20AA59F5C
:10158000900DB49F900DA49F800D911D112408957E
:10159000B7FF0C94BD0A0E94BD0A821B930B0895ED
:1015A000A1E21A2EAA1BBB1BFD010DC0AA1FBB1F67
:1015B000EE1FFF1FA217B307E407F50720F0A21BD9
:1015C000B30BE40BF50B661F771F881F991F1A9446
:1015D00069F760957095809590959B01AC01BD0170
:1015E000CF010895A29FB001B39FC001A39F700DCA
:1015F000811D1124911DB29F700D811D1124911D1B
:101600000895EE0FFF1F0590F491E02D099481E0FD
:0C16100090E0F8940C940C0BF894FFCFC1
:10161C0000000000000001000000000000000000BD
:10162C0006640001010000000000003A003A3A0094
:10163C003A2B237C3E6C336A031E2D320E463478D3
:10164C002B6E0D751B5D5E260A6F21652A3E4D18AB
:10165C0065641148666B122F172D591643021945F4
:10166C003A00000000000000000000000000000034
:10167C00000000000000000000000000000000005E
:10168C00000000000000000000000000000000004E
:10169C000000000000000000000000003C003C3C8A
:1016AC0000003C3C693C303D686E46405564432824
:1016BC00DFAF55B1C74A6110907D0CE88FBA20A0FE
:1016CC0065CEA67A3C21B7950A0CB800569507B2A0
:1016DC000F4C80A40400000000003D003D3D28504C
:1016EC00E43A6288006370872CF3711DE6527C2407
:1016FC002B713E7646414768CDF765CF891308427A
:10170C0097485EA39F775EA308C9EF432394AD006F
:10171C0000000000000000000000000000000000BD
:10172C000000000000000000000000000051001943
:10173C007E4572262C39FA0E2ED351000000000083
:10174C00000000000000000000000000000000008D
:10175C00000000000000000000000000000000314C
:10176C00313131313100042D052D15111C33333736
:10177C0030290000000000310000000000000000D3
:10178C00000000000000000000000000000000004D
:10179C00000000000000000000000000000000003D
:1017AC0000000000000000000000318B1A0B47D82D
:1017BC0053D2B9B254848E1B5CBDA7BDC6000000C9
:1017CC00000000000000286CEC1F73B8197276B48E
:1017DC000BDC5302EE6B6B2E326221631E7357636C
:1017EC00713E2864084311702B2727360B31393092
:1017FC003C3C003C000000002C011E0000003800A6
:10180C00000018000000200001001F0000008000F4
:10181C0000000000AA0213024102F70272025002F9
:10182C0064020809070611100F0E0D0A002F2F4C29
:10183C004F4144454400504152414D203020564FB9
:10184C004C554D453A20002F2F494E4954002C0041
:10185C002F2F454E4400706F743A200076616C6FE8
:04186C00723A2000AC
:00000001FF
