:100000000C9462000C948A000C948A000C948A0070
:100010000C948A000C948A000C948A000C948A0038
:100020000C948A000C948A000C948A000C948A0028
:100030000C948A000C948A000C948A000C948A0018
:100040000C942C080C948A000C949C080C94760850
:100050000C948A000C948A000C948A000C948A00F8
:100060000C948A000C948A000000000023002600F3
:10007000290000000000240027002A0000000000E2
:10008000250028002B0004040404040404040202D4
:100090000202020203030303030301020408102007
:1000A0004080010204081020010204081020000012
:1000B0000008000201000003040700000000000027
:1000C0000000CE0811241FBECFEFD8E0DEBFCDBFA9
:1000D00012E0A0E0B1E0E6EBF8E102C005900D927D
:1000E000A83DB107D9F725E0A8EDB2E001C01D9207
:1000F000A630B207E1F710E0C2E6D0E004C02197D5
:10010000FE010E94530CC136D107C9F70E940709AE
:100110000C94590C0C94000084E480937C00809132
:100120007A00806480937A0080917A0086FDFCCF0B
:1001300080917800909179000895833081F028F4BF
:10014000813099F08230A9F008958730A9F0883085
:10015000C9F08430B1F4809180008F7D03C080911C
:1001600080008F7780938000089584B58F7784BD59
:10017000089584B58F7DFBCF8091B0008F778093F9
:10018000B00008958091B0008F7DF9CF1F93CF9379
:10019000DF93282F30E0F901E255FF4F8491F901F8
:1001A000E656FF4FD491F901EA57FF4FC491CC2393
:1001B000A9F0162F81110E949D00EC2FF0E0EE0FA8
:1001C000FF1FE458FF4FA591B4918FB7F894EC91BD
:1001D000111108C0D095DE23DC938FBFDF91CF9142
:1001E0001F910895DE2BF8CFEF92FF920F931F938C
:1001F000CF93DF93182F062F80910505811771F19A
:1002000060E0809103050E94C600D0E0C0E0E12ECE
:10021000F12CB7010C2E02C0759567950A94E2F790
:100220006170E0910005F0910105EC0FFD1F8081E8
:100230000E94C6002196C830D10559F760E0809130
:1002400002050E94C6008BE090E00197F1F761E0A3
:10025000809102050E94C6001093050561E080911F
:1002600003050E94C600D0E0C0E010E0B8010C2EEB
:1002700002C0759567950A94E2F76170E0910005F8
:10028000F0910105EC0FFD1F80810E94C6002196B0
:10029000C830D10559F760E0809102050E94C60080
:1002A0008FE590E00197F1F761E080910205DF9121
:1002B000CF911F910F91FF90EF900C94C6009091F9
:1002C000040591111EC08930D0F460317105BCF471
:1002D00021E1829FF0011124EB5BFB4F718360836E
:1002E0002FE02383992311F0863048F494E0660FC1
:1002F000771F9A95E1F7805D0E94F40091E0892FC5
:1003000008958B3028F390E0FACFCF93DF93C0E1CC
:10031000D0E0BE018C2F8A500E945F012196C5312A
:10032000D105B9F760E286E10E94F40060E587E15B
:100330000E94F40060EC88E10E94F40067E086E22D
:100340000E94F40065E087E20E94F40061E088E228
:10035000DF91CF910C94F400CF93DF9390E0FC01F8
:10036000E656FF4F24918A579F4FFC0184918823C2
:10037000D1F090E0880F991FFC01EE58FF4FA59136
:10038000B491FC01E458FF4FC591D49161110EC0A6
:100390009FB7F8948C91E22FE0958E238C9328815F
:1003A000E223E8839FBFDF91CF9108958FB7F89440
:1003B000EC91E22BEC938FBFF6CFAF92BF92CF922E
:1003C000DF92EF92FF920F931F93CF93DF936C0115
:1003D0007B018B01040F151FEB015E01AE18BF08F6
:1003E000C017D10759F06991D601ED91FC910190A8
:1003F000F081E02DC6010995892B79F7C501DF91C0
:10040000CF911F910F91FF90EF90DF90CF90BF9011
:10041000AF900895FC01538D448D252F30E0842F3B
:1004200090E0821B930B541710F0CF96089501971C
:100430000895FC01918D828D981761F0A28DAE0F09
:10044000BF2FB11D5D968C91928D9F5F9F73928F90
:1004500090E008958FEF9FEF0895FC01918D828DBC
:10046000981731F0828DE80FF11D858D90E0089589
:100470008FEF9FEF0895FC01918D228D892F90E0E1
:10048000805C9F4F821B91098F739927089588EA9A
:1004900093E00E943B0221E0892B09F420E0822FA7
:1004A000089580E090E0892B29F00E944702811195
:1004B0000C9400000895FC01A48DA80FB92FB11D64
:1004C000A35ABF4F2C91848D90E001968F7399278A
:1004D000848FA689B7892C93A089B1898C91837068
:1004E00080648C93938D848D981306C00288F38961
:1004F000E02D80818F7D80830895EF92FF920F938E
:100500001F93CF93DF93EC0181E0888F9B8D8C8DBF
:1005100098131AC0E889F989808185FF15C09FB7B3
:10052000F894EE89FF896083E889F9898081837076
:10053000806480839FBF81E090E0DF91CF911F9125
:100540000F91FF90EF900895F62E0B8D10E00F5F46
:100550001F4F0F731127E02E8C8D8E110CC00FB61C
:1005600007FCFACFE889F989808185FFF5CFCE01B4
:100570000E945B02F1CFEB8DEC0FFD2FF11DE35AD2
:10058000FF4FF0829FB7F8940B8FEA89FB89808137
:100590008062CFCFCF93DF93EC01888D8823B9F0B1
:1005A000AA89BB89E889F9898C9185FD03C080817E
:1005B00086FD0DC00FB607FCF7CF8C9185FFF2CFFB
:1005C000808185FFEDCFCE010E945B02E9CFDF91F4
:1005D000CF910895AF92BF92CF92DF92EF92FF92A8
:1005E0001F93CF93DF938AE5C82E83E0D82E9EED2C
:1005F000E92E92E0F92EC0E0D1E016E02BE9A22E20
:10060000B12C612F61708CE00E94C60061E08AE02D
:100610000E94C60061E08BE00E94C600C501019700
:10062000F1F70E948C00AC0191E04115510509F0F1
:1006300090E0F60191936F01F70181917F019E0196
:100640002F5F3F4F8917E9F031979083452BC9F40D
:100650008E8191E089278E83163099F480914E0324
:1006600090914F030196843091053CF490934F0391
:1006700080934E03E90117E0C4CF10924F0310920C
:100680004E03E9011730B9F7DF91CF911F91FF9029
:10069000EF90DF90CF90BF90AF900895FC01019054
:1006A0000020E9F73197AF01481B590BBC0188EADC
:1006B00093E00C94DD018F929F92AF92BF920F93C3
:1006C0001F93CF93DF93CDB7DEB7A1970FB6F89402
:1006D000DEBF0FBECDBF19A2423008F44AE08E0142
:1006E0000F5D1F4F842E912CB12CA12CA5019401DC
:1006F0000E94FA0BE62FB901CA01EA30F4F4E05D7A
:10070000D801EE938D01232B242B252B79F790E034
:1007100080E0109719F0CD010E944E03A1960FB60C
:10072000F894DEBF0FBECDBFDF91CF911F910F9127
:10073000BF90AF909F908F900895E95CE1CFCF92EA
:10074000DF92EF92FF92CF93DF936B017C016DE21A
:1007500088EA93E00E947D02EC0166277727CB01AF
:100760006C197D098E099F094AE00E945B038C0F7A
:100770009D1FDF91CF91FF90EF90DF90CF90089574
:10078000CF93DF930E944E03EC0182E792E00E9438
:100790004E038C0F9D1FDF91CF910895CF93DF9370
:1007A000BC01990F880B990B97FF0CC00E949F0307
:1007B000EC0182E792E00E944E038C0F9D1FDF91B7
:1007C000CF9108954AE00E945B03F2CFCF93DF936D
:1007D000D82FC92F282F392FEAEEF2E040E065E04C
:1007E00078E0269FC001279F900D369F900D112421
:1007F0009C01275E394C832F820F50E2859FC001F8
:100800001124542F5370A9F0892F8061805E819349
:100810004F5F4F3031F7309365032093640385E7D2
:1008200092E00E94C0038D2F9C2FDF91CF910C94FA
:10083000CE03892F99278F7EE9CF2F923F924F9237
:100840005F926F927F928F929F92AF92BF92CF9260
:10085000DF92EF92FF920F931F93CF93DF9300D01D
:100860001F92CDB7DEB72AE8E22E23E0F22E3AE758
:10087000232E33E0332E00E412E08AE693E09B83DC
:100880008A83812C912C54018982F701C080D18008
:10089000F101C192D1921F01682D61708CE00E941C
:1008A000C600B4017595679561708AE00E94C60024
:1008B000B40175956795759567958BE00E94C600A4
:1008C00083E790E00197F1F70E948C009C012C19BE
:1008D0003D0937FF03C03195219531092530310598
:1008E0000CF4C601F70191838083C816D90609F478
:1008F0003FC0F80140805180052C000C6608770845
:1009000022813381032E000C440B550B2419350929
:1009100046095709DC010E94F20B2FEF33E040E05B
:1009200050E00E94C80B420E531E641E751EEA81E1
:10093000FB81518240824AE0C501B4010E945B0301
:100940008FE892E00E944E03EA81FB8180819181D1
:100950000E94CE03F981F1110BC0C0906A03D090C0
:100960006B0380E892E00E944E03C6010E94CE0312
:1009700082E0E80EF11C0C5F1F4FEA81FB8132968A
:10098000FB83EA83FFEF8F1A9F0AAF0ABF0A86E054
:1009900088169104A104B10409F076CF0F900F904E
:1009A0000F90DF91CF911F910F91FF90EF90DF900B
:1009B000CF90BF90AF909F908F907F906F905F90FF
:1009C0004F903F902F9008954F925F926F927F9239
:1009D0008F929F92AF92BF92CF92DF92EF92FF924F
:1009E0000F931F93CF937C01BC01990F880B990B38
:1009F0000E94BF0B09EC10E088E3882E912CA12CFB
:100A0000B12C412C512C32014A942BEAC22E24E005
:100A1000D22E0E94700BA50194010E94C80BC62F14
:100A20000E94700BA30192010E94C80BCF3009F401
:100A3000CEE08C2F0E94F400C6010197F1F701501F
:100A4000110939F781E992E00E944E03C701CF9165
:100A50001F910F91FF90EF90DF90CF90BF90AF90DC
:100A60009F908F907F906F905F904F900C94CE03EB
:100A70000F931F93CF9388EA93E00E943B021816CE
:100A80001906D4F488EA93E00E9419028133C1F474
:100A900006E012E0C0E0F80161918F018C2F0E9406
:100AA000F400CF5FC933B9F788E992E00E944E03A2
:100AB00081E090E00E94CE03CF911F910F910895A5
:100AC000823399F40CEC11E0C0E0F80161918F01E0
:100AD0008C2F0E94F400CF5FC933B9F788E992E008
:100AE0000E944E0382E090E0E5CF833399F402E95F
:100AF00011E0C0E0F80161918F018C2F0E94F40099
:100B0000CF5FC933B9F788E992E00E944E0383E0D2
:100B100090E0D0CF843399F408E511E0C0E0F8010B
:100B200061918F018C2F0E94F400CF5FC933B9F718
:100B300088E992E00E944E0384E090E0BBCF8533C9
:100B400099F40EE111E0C0E0F80161918F018C2F62
:100B50000E94F400CF5FC933B9F788E992E00E94A0
:100B60004E0385E090E0A6CF863329F486E090E03E
:100B70000E94E404A1CF873319F487E090E0F8CF16
:100B8000883319F488E090E0F3CF813729F481E0CD
:100B900090E00E94E60390CF873719F482E090E05E
:100BA000F8CF853619F483E090E0F3CF823719F45B
:100BB00084E090E0EECF843739F485E090E0CF9187
:100BC0001F910F910C94E603893719F486E090E0A9
:100BD000F6CF853719F487E090E0F1CF893619F424
:100BE00088E090E0ECCF813609F066CF8091150166
:100BF00090911601019690931601809315015CCF98
:100C00004F925F926F927F928F929F92AF92BF921C
:100C1000DF92EF92FF920F931F93CF93DF93809118
:100C20009E03811123C02FB7F8948091A403909163
:100C3000A503A091A603B091A7032FBF80939A03A9
:100C400090939B03A0939C03B0939D030E941D046B
:100C50000E94EA020E9438050E94F00780916A0310
:100C600090916B03909318018093170180916C030E
:100C700090916D03909369038093680380911501AF
:100C8000909116012091660330916703820F931FA4
:100C9000909365038093640381E08093040560E290
:100CA0008EE00E94F4000E94850120917003309133
:100CB0007103809172039091730340915B03411122
:100CC00042C0309353032093520390935103809377
:100CD000500380915A03882321F08DEA92E00E940C
:100CE000C003D0E0C0E005E018E040E1F42EEE24BF
:100CF000EA9480915003909151038C179D070CF456
:100D000084C08091640390916503809FA001819FBE
:100D1000500D909F500D1124475E594C5093650320
:100D200040936403852F840F28E0829FC001112423
:100D300020916E0380916803929F800D1124893366
:100D400078F08853FCCF30931401209313019093D3
:100D50004F0380934E0381EA92E00E94C003B9CF13
:100D600092EF980F923008F445C080934D03209184
:100D70004D0330E0F901E350FD4F80816091740331
:100D800070917503FB013797E337F105B0F1409F90
:100D9000C001419F900D509F900D1124875E994C8A
:100DA0009093650380936403890F8E9DC001112485
:100DB0009093FC028091FC029091FA02923039F0FB
:100DC0009330F9F0913039F4277F20934D0390E070
:100DD000877F8093FC02B090FC02D0904D036B2D76
:100DE0008D2D0E94F400ED2DF0E0E350FD4FB08218
:100DF00021967FCFF0924D03BACF86278093FC02D5
:100E0000D9CF277F20934D03E6CFE0916603F09181
:100E10006703E651FD4FC08110E000E0812C912C6A
:100E200054018A94EE24E394F12C409013015090E5
:100E30001401052C000C660877080E94700BA501B0
:100E400094010E94C80B64157505860597057CF40E
:100E50000115110561F0C8010197970102C0220F29
:100E6000331F8A95E2F7C90180959095C8230F5FDB
:100E70001F4F0F301105C9F66C2F8EE00E94F40051
:100E80008091520390915303C091E902BC0194E018
:100E9000759567959A95E1F7807F680F86E38C0FCB
:100EA0000E94F400CF5FC33009F46DC0C093E90223
:100EB000809174039091750320E130E0419714F420
:100EC00028E030E0809166039091670301968217D5
:100ED00093070CF05BC090936703809366038BEBE2
:100EE00092E00E944E0380914E0390914F030E9426
:100EF000CE0380914E0390914F038130910509F408
:100F000058C00CF048C0892B09F450C080911101E1
:100F1000882311F16091100170E080916603909137
:100F200067030E942B0C892BB9F48091FA029091EF
:100F3000FB020196843091050CF047C09093FB02B0
:100F40008093FA020E94700B97FF44C00E949F0397
:100F50008CEC92E00E94C003809112018F5F8B3075
:100F6000E8F580931201DF91CF911F910F91FF90CF
:100F7000EF90DF90BF90AF909F908F907F906F9099
:100F80005F904F9008951092E90292CF10926703FC
:100F900010926603A4CF8230910591F0039709F077
:100FA000B5CF81E08093110182E007C0109211015A
:100FB000ADCF81E08093110184E080931001A6CF32
:100FC00081E08093110188E0F8CF1092FB0210922B
:100FD000FA02B8CF4AE00E945B03BACF86E0C1CFE5
:100FE0001F93CF93DF9380918A0390918B0382327A
:100FF0009140CCF481E080939E0310919E031123D5
:1010000071F0EBEBF0E08491E7EAF0E0D491E3E9F2
:10101000F0E0C491C1110AC080E08093E802DF9142
:10102000CF911F91089510929E03E7CF81110E94E6
:101030009D00EC2FF0E0EE0FFF1FE859FF4FA59148
:10104000B491EC91ED2341F38091E8028111E5CF59
:101050000E940006812FE1CF1F920F920FB60F92D0
:1010600011242F933F938F939F93AF93BF938091BE
:10107000A4039091A503A091A603B091A70330917A
:10108000A30323E0230F2D3758F50196A11DB11DB1
:101090002093A3038093A4039093A503A093A60396
:1010A000B093A70380919F039091A003A091A10307
:1010B000B091A2030196A11DB11D80939F0390934F
:1010C000A003A093A103B093A203BF91AF919F91FE
:1010D0008F913F912F910F900FBE0F901F901895F9
:1010E00026E8230F0296A11DB11DD2CF1F920F92A9
:1010F0000FB60F9211242F933F934F935F936F93EB
:101100007F938F939F93AF93BF93EF93FF9388EA5F
:1011100093E00E945B02FF91EF91BF91AF919F918D
:101120008F917F916F915F914F913F912F910F9090
:101130000FBE0F901F9018951F920F920FB60F922F
:1011400011242F938F939F93EF93FF93E091B80314
:10115000F091B9038081E091BE03F091BF0382FD5D
:101160001BC090818091C1038F5F8F732091C20358
:10117000821741F0E091C103F0E0E855FC4F958FF4
:101180008093C103FF91EF919F918F912F910F90C9
:101190000FBE0F901F9018958081F4CFE8EAF3E01E
:1011A0001382128288EE93E0A0E0B0E084839583FE
:1011B000A683B7838CE592E09183808385EC90E0F1
:1011C0009587848784EC90E09787868780EC90E011
:1011D000918B808B81EC90E0938B828B82EC90E002
:1011E000958B848B86EC90E0978B868B118E128E7C
:1011F000138E148E8AE692E0909301058093000589
:1012000085E08093020584E0809303050895789437
:1012100084B5826084BD84B5816084BD85B58260FB
:1012200085BD85B5816085BD80916E0081608093AC
:101230006E00109281008091810082608093810015
:101240008091810081608093810080918000816025
:10125000809380008091B10084608093B100809180
:10126000B00081608093B00080917A0084608093A8
:101270007A0080917A00826080937A0080917A006F
:10128000816080937A0080917A00806880937A00F0
:101290001092C100E091B803F091B90382E080831D
:1012A000E091B403F091B5031082E091B603F091A0
:1012B000B7038FEC80831092C003E091BC03F091E0
:1012C000BD0386E08083E091BA03F091BB03808187
:1012D00080618083E091BA03F091BB0380818860D4
:1012E0008083E091BA03F091BB03808180688083A2
:1012F000E091BA03F091BB0380818F7D8083D0E0C1
:10130000C0E0E0910005F0910105EC0FFD1F61E0E8
:1013100080810E94AC012196C830D10591F761E02F
:10132000809102050E94AC0161E0809103050E945A
:10133000AC0161E0809102050E94C60060E08FE090
:101340000E94F4001092040560E08EE00E94F40018
:1013500005E414E0C0E080910405882379F08BE077
:10136000C81770F463E070E08C2F0E945F01F801F1
:1013700014861386CF5F0F5E1F4FEDCF89E0F0CF4D
:1013800081E08093040560E28EE00E94F4000E94F8
:10139000850161E08CE00E94AC0161E08AE00E947E
:1013A000AC0161E08BE00E94AC0160E082E10E9450
:1013B000AC0160E08DE00E94AC0161E083E00E943E
:1013C000AC0184E090E00E94E6030FE0EE24E39499
:1013D000F12CC5E4D4E010E080910405882309F4E1
:1013E0006EC08BE0181708F0A9C08B859C8501970B
:1013F00009F0A1C089859A85892B09F49CC08FB713
:10140000F8944091A4035091A5036091A6037091B4
:10141000A7038FBF8D859E85AF85B889481B590B63
:101420006A0B7B0B89859A85B0E0A0E048175907C5
:101430006A077B0708F47FC0809104058111F1C021
:10144000193078F41B8230E3D32ED10E6881798174
:1014500044E0660F771F4A95E1F76F608D2D0E947B
:10146000F40080910405882309F454C0163008F470
:1014700051C02881398160E22F3F3105F1F0E6EB60
:10148000F4E050E040E060E280819181892B39F006
:10149000C701042E01C0880F0A94EAF7682B4F5F3A
:1014A0005F4F71964530510579F72770C70101C02C
:1014B000880F2A95EAF7809568238EE038C089E086
:1014C00091CF8331910551F0449709F0BBC08091D1
:1014D0008C04602F681B26E3D22EC0CF8091480475
:1014E000602F681B6295607F80917B04F02FF81B52
:1014F0006F2B97E3D92EB2CF80916A04602F681BBF
:101500006295607F80915904902F981B692B88E326
:10151000D82EA4CF2F8138856E818A81811180E2F7
:10152000660F6E70682B30FD616080E2810F0E9453
:10153000F4001C861B861F5F61964ECF80919E0330
:101540008823A9F00E941D040E94EA020E94380527
:101550000E94F00780E090E0892B09F43ACF0E94C6
:101560004702882309F435CF0E94000032CF8091D2
:101570001901882329F12FB7F8948091A403909141
:10158000A503A091A603B091A7032FBF40919A0392
:1015900050919B0360919C0370919D03841B950B5C
:1015A000A60BB70B4497A105B10550F01092190195
:1015B00060E08DE00E94C60060E083E00E94C6000B
:1015C0008FB7F8944091A4035091A5036091A603AE
:1015D0007091A7038FBF80919A0390919B03A09174
:1015E0009C03B0919D03481B590B6A0B7B0B8091A8
:1015F000170190911801B0E0A0E0481759076A0759
:101600007B0708F4A7CF0E94000681E080931901B0
:1016100061E08DE00E94C60061E083E00E94C600A8
:1016200099CF1B82163008F40ECF888199818331BF
:10163000910508F046CF8131910508F05DCF4097C4
:1016400009F44CCF60E00ACF8F929F92AF92BF9285
:10165000CF92DF92EF92FF92CF93DF93EC016881FC
:1016600079818A819B81611571058105910521F43C
:1016700064E279ED8BE597E02DE133EF41E050E056
:101680000E94C80B49015A019B01AC01A7EAB1E4D1
:101690000E94E70B6B017C01ACEEB4EFA501940155
:1016A0000E94F50BC60ED71EE81EF91EF7FE06C0F7
:1016B00081E0C81AD108E10880E8F80AC882D98216
:1016C000EA82FB82C701B6019F77DF91CF91FF903D
:1016D000EF90DF90CF90BF90AF909F908F90089544
:1016E0008F929F92AF92BF92CF92DF92EF92FF9232
:1016F00060911A0170911B0180911C0190911D0154
:10170000611571058105910521F464E279ED8BE5A0
:1017100097E02DE133EF41E050E00E94C80B490112
:101720005A019B01AC01A7EAB1E40E94E70B6B01EF
:101730007C01ACEEB4EFA50194010E94F50BC60E3E
:10174000D71EE81EF91EF7FE06C081E0C81AD108B0
:10175000E10880E8F80AC0921A01D0921B01E092D9
:101760001C01F0921D01C701B6019F77FF90EF9019
:10177000DF90CF90BF90AF909F908F90089560932F
:101780001A0170931B0180931C0190931D01089511
:10179000052E97FB1EF400940E94DF0B57FD07D027
:1017A0000E94FA0B07FC03D04EF40C94DF0B50950B
:1017B0004095309521953F4F4F4F5F4F089590953D
:1017C0008095709561957F4F8F4F9F4F08950E9430
:1017D0001C0CA59F900DB49F900DA49F800D911D92
:1017E00011240895B7FF0C94E70B0E94E70B821BAE
:1017F000930B0895A1E21A2EAA1BBB1BFD010DC07D
:10180000AA1FBB1FEE1FFF1FA217B307E407F507B0
:1018100020F0A21BB30BE40BF50B661F771F881F8C
:10182000991F1A9469F760957095809590959B0122
:10183000AC01BD01CF010895A29FB001B39FC001CB
:10184000A39F700D811D1124911DB29F700D811DEC
:101850001124911D089597FB072E16F4009407D0CC
:1018600077FD09D00E943F0C07FC05D03EF490950F
:1018700081959F4F0895709561957F4F0895AA1B9C
:10188000BB1B51E107C0AA1FBB1FA617B70710F06B
:10189000A61BB70B881F991F5A95A9F7809590959D
:1018A000BC01CD010895EE0FFF1F0590F491E02DCE
:0618B0000994F894FFCF3B
:1018B6000000000000000101000000000000000020
:1018C6000401061E00E80364000101000000000098
:1018D60000003D003D3D2850E43A62880063708771
:1018E6002CF3711DE6527C242B713E7646414768E7
:1018F600CDF765CF8913084297485EA39F775EA30D
:1019060008C9EF432394AD0000000000000000006A
:1019160000000000000000000000000000000000C1
:1019260000000000005100197E4572262C39FA0E7F
:101936002ED351000000000000000000000000004F
:101946000000000000000000000000000000000091
:101956000000000000000031313131313100042D2A
:10196600052D15111C3333373029000000000031D6
:101976000000000000000000000000000000000061
:101986000000000000000000000000000000000051
:101996000000000000000000000000000000000041
:1019A6000000318B1A0B47D853D2B9B254848E1B20
:1019B6005CBDA7BDC6000000000000000000286C4A
:1019C600EC1F73B8197276B40BDC5302EE6B6B2EF8
:1019D600326221631E735763713E28640843117097
:1019E6002B2727360B3139303C3C003C00000000E9
:1019F6002C011E0000003800F8FF0800FF00000060
:101A06000000320000008000000000007D02DD01C1
:101A16000A02CA023B0219022D0208090706111022
:101A26000F0E0D0A006472756D207365713A200001
:101A3600504152414D203020564F4C554D453A208D
:101A460000736F6E673A20002F2F4C4F4144454478
:101A560000697A71207072657373656400647263DD
:101A6600686F207072657373656400726563757262
:101A7600736976654D6163726F3A20006379636CB2
:081A8600654D61736B2B2B0011
:00000001FF
