:020000040000FA
:100000000C94A3000C94CB000C94CB000C94CB006C
:100010000C94CB000C94CB000C94CB000C94CB0034
:100020000C94CB000C94CB000C94CB000C94CB0024
:100030000C94CB000C94CB000C94CB000C94CB0014
:100040000C94BB070C94CB000C942B080C94050863
:100050000C94CB000C94CB000C94CB000C94CB00F4
:100060000C94CB000C94CB0007634236B79BD8A707
:100070001A39685618AEBAAB558C1D3CB7CC5763CD
:10008000BD6DEDFD753EF6177231BF000000803F7B
:1000900008000000BE922449123EABAAAA2ABECD97
:1000A000CCCC4C3E00000080BEABAAAAAA3E000009
:1000B0000000BF000000803F000000000008417801
:1000C000D3BB4387D1133D190E3CC3BD4282AD2B38
:1000D0003E68EC8276BED98FE1A93E4C80EFFFBE30
:1000E00001C4FF7F3F00000000000000000023006B
:1000F0002600290000000000240027002A0000003C
:100100000000250028002B00040404040404040457
:1001100002020202020203030303030301020408B2
:100120001020408001020408102001020408102061
:1001300000000008000201000003040700000000A6
:10014000000000005D0811241FBECFEFD8E0DEBF25
:10015000CDBF13E0A0E0B1E0E4E6FEE102C005900F
:100160000D92AA37B107D9F725E0AAE7B3E001C09D
:100170001D92AE37B207E1F710E0C3EAD0E004C049
:100180002197FE010E942A0FC23AD107C9F70E94A7
:1001900096080C94300F0C94000084E480937C004B
:1001A00080917A00806480937A0080917A0086FD45
:1001B000FCCF80917800909179000895833081F090
:1001C00028F4813099F08230A9F008958730A9F0A1
:1001D0008830C9F08430B1F4809180008F7D03C0F5
:1001E000809180008F7780938000089584B58F7709
:1001F00084BD089584B58F7DFBCF8091B0008F774B
:100200008093B00008958091B0008F7DF9CF1F9347
:10021000CF93DF93282F30E0F901E05DFE4F84910A
:10022000F901E45EFE4FD491F901E85FFE4FC491FD
:10023000CC23A9F0162F81110E94DE00EC2FF0E0F4
:10024000EE0FFF1FE250FF4FA591B4918FB7F894C6
:10025000EC91111108C0D095DE23DC938FBFDF91A4
:10026000CF911F910895DE2BF8CFEF92FF920F935D
:100270001F93CF93DF93182F062F80917D05811751
:1002800071F160E080917B050E940701D0E0C0E041
:10029000E12EF12CB7010C2E02C0759567950A94DA
:1002A000E2F76170E0917805F0917905EC0FFD1FA0
:1002B00080810E9407012196C830D10559F760E07E
:1002C00080917A050E9407018BE090E00197F1F799
:1002D00061E080917A050E94070110937D0561E03D
:1002E00080917B050E940701D0E0C0E010E0B801DA
:1002F0000C2E02C0759567950A94E2F76170E09143
:100300007805F0917905EC0FFD1F80810E940701AF
:100310002196C830D10559F760E080917A050E9496
:1003200007018FE590E00197F1F761E080917A0590
:10033000DF91CF911F910F91FF90EF900C940701E7
:1003400090917C0591111EC08930D0F46031710507
:10035000BCF421E1829FF0011124E354FB4F71832F
:1003600060832FE02383992311F0863048F494E0D2
:10037000660F771F9A95E1F7805D0E94350191E045
:10038000892F08958B3028F390E0FACF0F931F93B5
:10039000CF93DF93C82F80937C0560E2811101C069
:1003A00060E08EE00E9435010DEB14E0CC2339F1C2
:1003B000C0E1D0E0BE018C2F8A500E94A00121969E
:1003C000C531D105B9F760E286E10E94350160E5EB
:1003D00087E10E94350160EC88E10E94350167E009
:1003E00086E20E94350165E087E20E94350161E006
:1003F00088E2DF91CF911F910F910C94350180918C
:100400007C0581110FC089E0C81770F463E070E0CB
:100410008C2F0E94A001F80114861386CF5F0F5E17
:100420001F4FEDCF8BE0F0CFDF91CF911F910F9158
:100430000895CF93DF9390E0FC01E45EFE4F24919A
:10044000885F9E4FFC0184918823D1F090E0880F53
:10045000991FFC01EC50FF4FA591B491FC01E250B3
:10046000FF4FC591D49161110EC09FB7F8948C9144
:10047000E22FE0958E238C932881E223E8839FBFAF
:10048000DF91CF9108958FB7F894EC91E22BEC9324
:100490008FBFF6CFAF92BF92CF92DF92EF92FF92D3
:1004A0000F931F93CF93DF936C017B018B01040F9C
:1004B000151FEB015E01AE18BF08C017D10759F038
:1004C0006991D601ED91FC910190F081E02DC6017A
:1004D0000995892B79F7C501DF91CF911F910F9174
:1004E000FF90EF90DF90CF90BF90AF900895FC0108
:1004F000538D448D252F30E0842F90E0821B930B89
:10050000541710F0CF96089501970895FC01918D2E
:10051000828D981761F0A28DAE0FBF2FB11D5D9631
:100520008C91928D9F5F9F73928F90E008958FEFD3
:100530009FEF0895FC01918D828D981731F0828D87
:10054000E80FF11D858D90E008958FEF9FEF0895DE
:10055000FC01918D228D892F90E0805C9F4F821B42
:1005600091098F739927089580E294E00E94A80270
:1005700021E0892B09F420E0822F089580E090E0AB
:10058000892B29F00E94B40281110C940000089577
:10059000FC01A48DA80FB92FB11DA35ABF4F2C91F8
:1005A000848D90E001968F739927848FA689B789EF
:1005B0002C93A089B1898C91837080648C93938DE6
:1005C000848D981306C00288F389E02D80818F7D89
:1005D00080830895EF92FF920F931F93CF93DF9341
:1005E000EC0181E0888F9B8D8C8D98131AC0E8896F
:1005F000F989808185FF15C09FB7F894EE89FF893E
:100600006083E889F98980818370806480839FBFDB
:1006100081E090E0DF91CF911F910F91FF90EF90DB
:100620000895F62E0B8D10E00F5F1F4F0F731127EB
:10063000E02E8C8D8E110CC00FB607FCFACFE88926
:10064000F989808185FFF5CFCE010E94C802F1CFE4
:10065000EB8DEC0FFD2FF11DE35AFF4FF0829FB79A
:10066000F8940B8FEA89FB8980818062CFCFCF938A
:10067000DF93EC01888D8823B9F0AA89BB89E889CA
:10068000F9898C9185FD03C0808186FD0DC00FB670
:1006900007FCF7CF8C9185FFF2CF808185FFEDCFEE
:1006A000CE010E94C802E9CFDF91CF910895CF9289
:1006B000DF92EF92FF921F93CF93DF9380E8E82EB3
:1006C00083E0F82EC1E0D1E016E09BE9C92ED12CE1
:1006D000612F61708CE00E94070161E08AE00E9456
:1006E000070161E08BE00E940701C6010197F1F765
:1006F0000E94CD009C0191E02115310509F090E0A8
:10070000F70181917F01891741F031979083232B65
:1007100021F48E8191E089278E832196173041F450
:10072000DF91CF911F91FF90EF90DF90CF900895D0
:1007300017E0CECFFC0101900020E9F73197AF011F
:10074000481B590BBC0180E294E00C944A028F9242
:100750009F92AF92BF920F931F93CF93DF93CDB72A
:10076000DEB7A1970FB6F894DEBF0FBECDBF19A2BA
:10077000423008F44AE08E010F5D1F4F842E912C09
:10078000B12CA12CA50194010E94640BE62FB901A4
:10079000CA01EA30F4F4E05DD801EE938D01232B19
:1007A000242B252B79F790E080E0109719F0CD01EC
:1007B0000E949A03A1960FB6F894DEBF0FBECDBF7C
:1007C000DF91CF911F910F91BF90AF909F908F902D
:1007D0000895E95CE1CF0C949A03CF92DF92EF92F7
:1007E000FF92CF93DF9397FF1BC06B017C016DE2FB
:1007F00080E294E00E94EA02EC0166277727CB01B1
:100800006C197D098E099F094AE00E94A7038C0F8D
:100810009D1FDF91CF91FF90EF90DF90CF900895D3
:100820004AE0DF91CF91FF90EF90DF90CF900C9452
:10083000A703CF93DF93BC01990F880B990B0E94FC
:10084000ED03EC018AE193E00E949A038C0F9D1F57
:10085000DF91CF910895EF92FF921F93CF93DF9393
:10086000EC018130910501F57EEAE72E72E0F72E6A
:1008700010E0F70161917F01812F0E9435011F5F18
:100880001933B9F7C630D10591F52CE8E22E21E0F5
:10089000F22E10E0F70161917F01812F0E94350156
:1008A0001F5F1933B9F769C08230910579F464E7A5
:1008B000E62E62E0F62E10E0F70161917F01812FB4
:1008C0000E9435011F5F1933B9F7DCCF83309105E2
:1008D00001F55AE3E52E52E0F52E10E0F7016191A3
:1008E0007F01812F0E9435011F5F1933B9F7C7308F
:1008F000D10501F592E5E92E91E0F92E10E0F7011E
:1009000061917F01812F0E9435011F5F1933B9F773
:1009100034C08430910501F540E0E42E42E0F42E2D
:1009200010E0F70161917F01812F0E9435011F5F67
:100930001933B9F7C830D10501F588E1E82E81E017
:10094000F82E10E0F70161917F01812F0E9435019F
:100950001F5F1933B9F711C0059709F093CF36EC33
:10096000E32E31E0F32E10E0F70161917F01812F3A
:100970000E9435011F5F1933B9F78DE193E00E94A2
:10098000EB03CE01DF91CF911F91FF90EF900C947C
:1009900019042F923F924F925F926F927F928F92A3
:1009A0009F92AF92BF92CF92DF92EF92FF920F93FE
:1009B0001F93CF93DF9300D01F92CDB7DEB722E015
:1009C000E22E24E0F22E32EF232E33E0332E08EE17
:1009D00012E082EE93E09B838A83812C912C540158
:1009E0008982F701C080D180F101C192D1921F01AB
:1009F000682D61708CE00E940701B40175956795C0
:100A000061708AE00E940701B4017595679575953C
:100A100067958BE00E94070183E790E00197F1F76B
:100A20000E94CD009C012C193D0937FF03C0319570
:100A300021953109243031050CF4C601F701918369
:100A40008083C816D90609F43FC0F8014080518060
:100A5000052C000C6608770822813381032E000CD8
:100A6000440B550B2419350946095709DC010E942E
:100A70005C0B2FEF33E040E050E00E94320B420E5F
:100A8000531E641E751EEA81FB81518240824AE03A
:100A9000C501B4010E94A70385E393E00E94EB0324
:100AA000EA81FB81808191810E941904F981F11111
:100AB0000BC0C090E203D090E30386E293E00E9473
:100AC000EB03C6010E94190482E0E80EF11C0C5FE2
:100AD0001F4FEA81FB813296FB83EA83FFEF8F1A77
:100AE0009F0AAF0ABF0A86E088169104A104B104E8
:100AF00009F076CF0F900F900F90DF91CF911F915B
:100B00000F91FF90EF90DF90CF90BF90AF909F90AC
:100B10008F907F906F905F904F903F902F900895AF
:100B2000CF92DF92EF92FF92CF93DF9380E294E037
:100B30000E94A802181619060CF04DC080E294E03D
:100B40000E948602843609F04DC087E393E00E943C
:100B50009A038AE193E00E949A03CBE8D3E069917B
:100B600070E090E080E04AE00E94A7038EE393E00B
:100B70000E94EB0383E0C43CD80789F780E493E04C
:100B80000E94EB03C2E0D4E0C12CD12C760186E4B4
:100B900093E00E94EB034AE0C701B6010E94A7035D
:100BA0008CE493E00E94EB0369917991072E000C8D
:100BB000880B990B0E94ED038EE393E00E94EB03F8
:100BC0008FEFC81AD80AE80AF80A88E0C816D104D4
:100BD000E104F104E1F6DF91CF91FF90EF90DF9017
:100BE000CF900895813329F481E090E00E942B0496
:100BF000F2CF823319F482E090E0F8CF833319F416
:100C000083E090E0F3CF843351F484E090E0DF910F
:100C1000CF91FF90EF90DF90CF900C942B04853311
:100C200019F485E090E0F3CF863319F486E090E084
:100C3000EECF873319F487E090E0E9CF883359F697
:100C400088E090E0E4CF2F923F924F925F926F92B4
:100C50007F928F929F92AF92BF92CF92DF92EF924C
:100C6000FF920F931F93CF93DF938091160481110E
:100C700023C02FB7F89480911C0490911D04A0917B
:100C80001E04B0911F042FBF80931204909313048D
:100C9000A0931404B09315040E94C9040E94570342
:100CA0000E9490050E947F078091E2039091E303E8
:100CB00090931201809311018091E4039091E503D8
:100CC0009093E1038093E0038091E6039091E70322
:100CD0009093DF038093DE0384E593E00E94EB03AF
:100CE0006091E0037091E103072E000C880B990BD3
:100CF0000E94ED038AE593E00E94EB036091DE031E
:100D00007091DF03072E000C880B990B0E94ED03F6
:100D100088E693E00E94EB036091DB037091DC03B3
:100D2000072E000C880B990B0E94ED0382E793E0DD
:100D30000E94EB03609111017091120190E080E03C
:100D40004AE00E94A7038AE193E00E949A0360911F
:100D5000DD0370E0695F7F4F072E000C880B990B55
:100D60000E94290B809108010E94C6016091E8034E
:100D70007091E903072E000C880B990B0E943A0C26
:100D80009B01AC0160E070E080E090E40E94C60C42
:100D900020E030E040E85FE30E94960B0E94020CE6
:100DA0001B0161507109EE24E394F12C02C0EE0C9A
:100DB000FF1C6A95E2F7E094F094D12CC12C412CF1
:100DC000512C32014A948091DE039091DF038C15FF
:100DD0009D050CF463C08090EA039090EB03092C0E
:100DE000000CAA08BB0881149104A104B10439F0D5
:100DF0000E94DA0AA50194010E94320B4B018091F6
:100E0000EA039091EB0397FD019695958795E40190
:100E1000C81BD90BD093DC03C093DB031091E00314
:100E20001C0F193310F01853FCCF1F3009F41EE0CB
:100E3000C12FD0E08091EC039091ED039C012051F3
:100E400031092136310520F10E94DA0AA30192010D
:100E50000E94320B80910701882319F01C2F177F05
:100E6000677FC12FD0E02114310411F0CE21DF21A2
:100E70008C2F062F2114310409F00E21602F0E94BF
:100E80003501C557DC4F08838FEFC81AD80A9BCFAE
:100E9000FE01E557FC4F60816827DCCF8091EC03B1
:100EA0009091ED0320E130E0419714F428E030E028
:100EB0008091DD038F5F82171306E4F48093DD03D6
:100EC000809100018F5F8B30C0F480930001DF912F
:100ED000CF911F910F91FF90EF90DF90CF90BF9037
:100EE000AF909F908F907F906F905F904F903F90CA
:100EF0002F9008951092DD03E3CF86E0E6CF1F9395
:100F0000CF93DF9380910204909103048232914049
:100F1000CCF481E08093160410911604112371F033
:100F2000EDE3F1E08491E9E2F1E0D491E5E1F1E073
:100F3000C491C1110AC080E080938A03DF91CF91F0
:100F40001F91089510921604E7CF81110E94DE00D0
:100F5000EC2FF0E0EE0FFF1FE651FF4FA591B4918B
:100F6000EC91ED2341F380918A038111E5CF0E943A
:100F70002306812FE1CF1F920F920FB60F921124FB
:100F80002F933F938F939F93AF93BF9380911C04B4
:100F900090911D04A0911E04B0911F0430911B0478
:100FA00023E0230F2D3758F50196A11DB11D209385
:100FB0001B0480931C0490931D04A0931E04B09303
:100FC0001F048091170490911804A0911904B09106
:100FD0001A040196A11DB11D809317049093180463
:100FE000A0931904B0931A04BF91AF919F918F9170
:100FF0003F912F910F900FBE0F901F90189526E8EC
:10100000230F0296A11DB11DD2CF1F920F920FB6D2
:101010000F9211242F933F934F935F936F937F937E
:101020008F939F93AF93BF93EF93FF9380E294E0EE
:101030000E94C802FF91EF91BF91AF919F918F9154
:101040007F916F915F914F913F912F910F900FBEC4
:101050000F901F9018951F920F920FB60F921124A8
:101060002F938F939F93EF93FF93E0913004F09130
:1010700031048081E0913604F091370482FD1BC079
:101080009081809139048F5F8F7320913A04821789
:1010900041F0E0913904F0E0E05EFB4F958F8093E2
:1010A0003904FF91EF919F918F912F910F900FBE77
:1010B0000F901F9018958081F4CFE0E2F4E0138246
:1010C000128288EE93E0A0E0B0E084839583A6834B
:1010D000B78384E093E09183808385EC90E09587EB
:1010E000848784EC90E09787868780EC90E0918BF2
:1010F000808B81EC90E0938B828B82EC90E0958BDF
:10110000848B86EC90E0978B868B118E128E138EDB
:10111000148E82E193E0909379058093780585E0C1
:1011200080937A0584E080937B050895789484B554
:10113000826084BD84B5816084BD85B5826085BDD3
:1011400085B5816085BD80916E00816080936E0061
:101150001092810080918100826080938100809153
:101160008100816080938100809180008160809304
:1011700080008091B10084608093B1008091B000C4
:1011800081608093B00080917A00846080937A00BF
:1011900080917A00826080937A0080917A008160E9
:1011A00080937A0080917A00806880937A00109210
:1011B000C100E0913004F091310482E08083E0913D
:1011C0002C04F0912D041082E0912E04F0912F0454
:1011D0008FEC808310923804E0913404F091350450
:1011E00086E08083E0913204F09133048081806155
:1011F0008083E0913204F0913304808188608083A1
:10120000E0913204F0913304808180688083E09122
:101210003204F091330480818F7D8083D0E0C0E080
:10122000E0917805F0917905EC0FFD1F61E0808178
:101230000E9419022196C830D10591F761E0809192
:101240007A050E94190261E080917B050E941902D3
:1012500061E080917A050E94070160E08FE00E94C2
:10126000350180E00E94C60181E00E94C60161E074
:101270008CE00E94190261E08AE00E94190261E09C
:101280008BE00E94190260E082E10E94190260E096
:101290008DE00E94190261E083E00E9419020FE0D4
:1012A000EE24E394F12CCDEBD4E010E080917C05AA
:1012B000882309F46EC08BE0181708F0A9C08B854D
:1012C0009C85019709F0A1C089859A85892B09F42D
:1012D0009CC08FB7F89440911C0450911D046091FC
:1012E0001E0470911F048FBF8D859E85AF85B889C0
:1012F000481B590B6A0B7B0B89859A85B0E0A0E0EF
:10130000481759076A077B0708F47FC080917C055E
:101310008111F1C0193078F41B8230E3D32ED10E45
:101320006881798144E0660F771F4A95E1F76F6025
:101330008D2D0E94350180917C05882309F454C0CD
:10134000163008F451C02881398160E22F3F310501
:10135000F1F0EEE2F5E050E040E060E28081918162
:10136000892B39F0C701042E01C0880F0A94EAF7CF
:10137000682B4F5F5F4F71964530510579F72770A5
:10138000C70101C0880F2A95EAF7809568238EE08F
:1013900038C089E091CF8331910551F0449709F02D
:1013A000BBC080910405602F681B26E3D22EC0CFFE
:1013B0008091C004602F681B6295607F8091F30468
:1013C000902F981B692B97E3D92EB2CF8091E2041E
:1013D000602F681B6295607F8091D104902F981BCD
:1013E000692B88E3D82EA4CF2F8138856E818A811E
:1013F000811180E2660F6E70682B30FD616080E2C3
:10140000810F0E9435011C861B861F5F61964ECF9F
:10141000809116048823A9F00E94C9040E945703F2
:101420000E9490050E947F0780E090E0892B09F4DC
:101430003ACF0E94B402882309F435CF0E940000FD
:1014400032CF80911301882329F12FB7F89480912E
:101450001C0490911D04A0911E04B0911F042FBF85
:10146000409112045091130460911404709115047A
:10147000841B950BA60BB70B4497A105B10550F043
:101480001092130160E08DE00E94070160E083E0AC
:101490000E9407018FB7F89440911C0450911D04DD
:1014A00060911E0470911F048FBF8091120490916F
:1014B0001304A0911404B0911504481B590B6A0B36
:1014C0007B0B8091110190911201B0E0A0E04817D0
:1014D00059076A077B0708F4A7CF0E94230681E01B
:1014E0008093130161E08DE00E94070161E083E0D9
:1014F0000E94070199CF1B82163008F40ECF888115
:1015000099818331910508F046CF8131910508F02A
:101510005DCF409709F44CCF60E00ACF8F929F9245
:10152000AF92BF92CF92DF92EF92FF92CF93DF9371
:10153000EC01688179818A819B8161157105810542
:10154000910521F464E279ED8BE597E02DE133EF2D
:1015500041E050E00E94320B49015A019B01AC016D
:10156000A7EAB1E40E94510B6B017C01ACEEB4EF31
:10157000A50194010E945F0BC60ED71EE81EF91E3E
:10158000F7FE06C081E0C81AD108E10880E8F80A31
:10159000C882D982EA82FB82C701B6019F77DF91B8
:1015A000CF91FF90EF90DF90CF90BF90AF909F9042
:1015B0008F9008958F929F92AF92BF92CF92DF92B9
:1015C000EF92FF92609114017091150180911601C4
:1015D00090911701611571058105910521F464E26F
:1015E00079ED8BE597E02DE133EF41E050E00E948B
:1015F000320B49015A019B01AC01A7EAB1E40E94F8
:10160000510B6B017C01ACEEB4EFA50194010E947B
:101610005F0BC60ED71EE81EF91EF7FE06C081E05E
:10162000C81AD108E10880E8F80AC0921401D092E3
:101630001501E0921601F0921701C701B6019F77DC
:10164000FF90EF90DF90CF90BF90AF909F908F90E2
:10165000089560931401709315018093160190937F
:1016600017010895052E97FB1EF400940E94490B64
:1016700057FD07D00E94640B07FC03D04EF40C9476
:10168000490B50954095309521953F4F4F4F5F4FF7
:10169000089590958095709561957F4F8F4F9F4FDE
:1016A00008950E94860BA59F900DB49F900DA49F56
:1016B000800D911D11240895B7FF0C94510B0E94C9
:1016C000510B821B930B0895A1E21A2EAA1BBB1B80
:1016D000FD010DC0AA1FBB1FEE1FFF1FA217B307FE
:1016E000E407F50720F0A21BB30BE40BF50B661F14
:1016F000771F881F991F1A9469F7609570958095D8
:1017000090959B01AC01BD01CF010895A29FB0014E
:10171000B39FC001A39F700D811D1124911DB29F25
:10172000700D811D1124911D08955058BB27AA27C3
:101730000E94AD0B0C948C0C0E947E0C38F00E9421
:10174000850C20F039F49F3F19F426F40C947B0C9F
:101750000EF4E095E7FB0C94750CE92F0E949D0CAC
:1017600058F3BA17620773078407950720F079F4D6
:10177000A6F50C94BF0C0EF4E0950B2EBA2FA02DFD
:101780000B01B90190010C01CA01A0011124FF272E
:10179000591B99F0593F50F4503E68F11A16F04029
:1017A000A22F232F342F4427585FF3CF4695379528
:1017B0002795A795F0405395C9F77EF41F16BA0BED
:1017C000620B730B840BBAF09150A1F0FF0FBB1F9B
:1017D000661F771F881FC2F70EC0BA0F621F731FE4
:1017E000841F48F4879577956795B795F7959E3F41
:1017F00008F0B0CF9395880F08F09927EE0F9795D2
:10180000879508950E94090C6894B1110C94C00C3E
:1018100008950E94A50C88F09F5798F0B92F99273A
:10182000B751B0F0E1F0660F771F881F991F1AF0CB
:10183000BA95C9F714C0B13091F00E94BF0CB1E065
:1018400008950C94BF0C672F782F8827B85F39F064
:10185000B93FCCF3869577956795B395D9F73EF464
:1018600090958095709561957F4F8F4F9F4F08950C
:10187000E89409C097FB3EF490958095709561952A
:101880007F4F8F4F9F4F9923A9F0F92F96E9BB27E0
:101890009395F695879577956795B795F111F8CF5C
:1018A000FAF4BB0F11F460FF1BC06F5F7F4F8F4FC7
:1018B0009F4F16C0882311F096E911C0772321F0BD
:1018C0009EE8872F762F05C0662371F096E8862F55
:1018D00070E060E02AF09A95660F771F881FDAF7AC
:1018E000880F9695879597F9089597F99F6780E8EF
:1018F00070E060E008959FEF80EC089500240A9462
:101900001616170618060906089500240A941216DA
:101910001306140605060895092E0394000C11F40D
:10192000882352F0BB0F40F4BF2B11F460FF04C0BA
:101930006F5F7F4F8F4F9F4F089557FD9058440F13
:10194000551F59F05F3F71F04795880F97FB991F1E
:1019500061F09F3F79F087950895121613061406DB
:10196000551FF2CF4695F1DF08C016161706180668
:10197000991FF1CF86957105610508940895E89443
:10198000BB2766277727CB0197F90895FA01EE0F59
:10199000FF1F309621053105A1F16115710561F434
:1019A0008038BFE39B0749F168949038810561F066
:1019B0008038BFEF9B0741F099234AF5FF3FE105CF
:1019C0003105210519F1E8940894E795D901AA2376
:1019D00029F4AB2FBE2FF85FD0F310C0FF5F70F477
:1019E000A695E0F7F73950F019F0FF3A38F49F77F1
:1019F0009F930DD00F9007FC9058089546F00C94DB
:101A00007B0C60E070E080E89FE308954FE79F77EC
:101A10005F934F933F932F930E94C10D2F913F915E
:101A20004F915F910E943D0E0C941E0D29F416F00B
:101A30000C94750C0C94BF0C0C947B0C0E94A50CA0
:101A4000A8F39638A0F707F80F92E8942BE33AEA48
:101A500048EB5FE70E94530E0F920F920F924DB723
:101A60005EB70F920E94090EE8E6F0E00E94500D6A
:101A70004F915F91EF91FF91E595EE1FFF1F49F0A8
:101A8000FE57E0684427EE0F441FFA95E1F74195B1
:101A9000550B0E94830D0F9007FE0C94770D08954F
:101AA000DF93CF931F930F93FF92EF92DF927B010F
:101AB0008C01689406C0DA2EEF010E94500EFE01E0
:101AC000E894A5912591359145915591A6F3EF01A3
:101AD0000E94AD0BFE019701A801DA9469F7DF902F
:101AE000EF90FF900F911F91CF91DF9108959B018F
:101AF000AC0160E070E080E89FE30C94AA0E0C94C7
:101B0000750C0C941C0F0E94A50CD8F39923C9F3F3
:101B1000940F511DA3F39150504094F059F0882335
:101B200032F0660F771F881F91505040C1F79E3FDB
:101B300051052CF7880F911D9695879597F9089573
:101B40005F3FACF0983E9CF0BB27869577956795F4
:101B5000B79508F4B1609395C1F7BB0F58F711F42E
:101B600060FFE8CF6F5F7F4F8F4F9F4FE3CF0C94A5
:101B7000C00C16F00C941C0F0C947B0C68940C9405
:101B8000750C0E94A50CA8F39923C1F3AEF3DF9363
:101B9000CF931F930F93FF92C92FDD2788232AF03D
:101BA0002197660F771F881FDAF720E030E040E8C2
:101BB0005FEB9FE3883920F0803E38F021968F77E5
:101BC0000E94960BE0E9F0E004C00E94960BEDEB5A
:101BD000F0E00E94500D8B01BE01EC01FB2E6F570F
:101BE00071097595771F880B990B0E943A0C28E1B3
:101BF00032E741E35FE30E94500EAF2D9801AE0142
:101C0000FF900F911F91CF91DF910E94AD0B0C942B
:101C10008C0CFA01DC01AA0FBB1F9B01AC01BF5762
:101C200028F4222733274427507820C0B75190F456
:101C3000AB2F0024469537952795011CA395D2F329
:101C4000002071F0220F331F441FB395DAF30ED03A
:101C50000C94950B61307105A0E88A07B94630F401
:101C60009B01AC016627772788279078309621F072
:101C7000208331834283538308950E94500E0C9435
:101C80008C0C0E947E0C38F00E94850C20F095236D
:101C900011F00C94750C0C947B0C11240C94C00C5A
:101CA0000E949D0C70F3959FC1F3950F50E0551F56
:101CB000629FF001729FBB27F00DB11D639FAA27A1
:101CC000F00DB11DAA1F649F6627B00DA11D661FF0
:101CD000829F2227B00DA11D621F739FB00DA11D11
:101CE000621F839FA00D611D221F749F3327A00DCB
:101CF000611D231F849F600D211D822F762F6A2F67
:101D000011249F5750409AF0F1F088234AF0EE0FCB
:101D1000FF1FBB1F661F771F881F91505040A9F7F8
:101D20009E3F510580F00C94750C0C94C00C5F3FE5
:101D3000E4F3983ED4F3869577956795B795F79534
:101D4000E7959F5FC1F7FE2B880F911D96958795AC
:101D500097F908950E94BE0E0C948C0C0E94850C7D
:101D600058F00E947E0C40F029F45F3F29F00C945B
:101D7000750C51110C94C00C0C947B0C0E949D0CA2
:101D800068F39923B1F3552391F3951B550BBB27AA
:101D9000AA2762177307840738F09F5F5F4F220FEF
:101DA000331F441FAA1FA9F335D00E2E3AF0E0E8E6
:101DB00032D091505040E695001CCAF72BD0FE2F30
:101DC00029D0660F771F881FBB1F261737074807C4
:101DD000AB07B0E809F0BB0B802DBF01FF2793587C
:101DE0005F4F3AF09E3F510578F00C94750C0C94BF
:101DF000C00C5F3FE4F3983ED4F3869577956795E2
:101E0000B795F7959F5FC9F7880F911D96958795B0
:101E100097F90895E1E0660F771F881FBB1F6217CF
:101E200073078407BA0720F0621B730B840BBA0B8D
:101E3000EE1F88F7E09508959F3F31F0915020F410
:101E4000879577956795B795880F911D9695879596
:101E500097F90895EE0FFF1F0590F491E02D099476
:101E6000F894FFCF06000000000000010100000010
:101E70000000000000640001010000000000003AC2
:101E8000003A3A003A2B237C3E6C336A031E2D3213
:101E90000E4634782B6E0D751B5D5E260A6F21652C
:101EA0002A3E4D1865641148666B122F172D59167E
:101EB000430219453A000000000000000000000045
:101EC0000000000000000000000000000000000012
:101ED0000000000000000000000000000000000002
:101EE00000000000000000000000000000000000F2
:101EF0003C003C3C00003C3C693C303D686E464048
:101F000055644328DFAF55B1C74A6110907D0CE896
:101F10008FBA20A065CEA67A3C21B7950A0CB800EE
:101F2000569507B20F4C80A40400000000003D004D
:101F30003D3D2850E43A6288006370872CF3711DA0
:101F4000E6527C242B713E7646414768CDF765CF3B
:101F50008913084297485EA39F775EA308C9EF43A1
:101F60002394AD000000000000000000000000000D
:101F70000000000000000000000000000000000061
:101F8000005100197E4572262C39FA0E2ED35100CD
:101F90000000000000000000000000000000000041
:101FA0000000000000000000000000000000000031
:101FB00000000031313131313100042D052D151172
:101FC0001C333337302900000000003100000000CE
:101FD0000000000000000000000000000000000001
:101FE00000000000000000000000000000000000F1
:101FF0000000000000000000000000000000318B25
:102000001A0B47D853D2B9B254848E1B5CBDA7BDFE
:10201000C6000000000000000000286CEC1F73B830
:10202000197276B40BDC5302EE6B6B2E32622163B5
:102030001E735763713E2864084311702B2727369F
:102040000B3139303C3C003C000000002C011E00EC
:1020500000003800010032000000080001003200DA
:102060000000800000000000EA024A027702370305
:10207000A80286029A020809070611100F0E0D0A1F
:10208000002F2F4C4F4144454400504152414D20B8
:102090003020564F4C554D453A20002F2F494E4980
:1020A00054002C002F2F454E4400706F743A2000CE
:1020B00076616C6F723A2000626173653A0020208D
:1020C0006C6F6F704C656E6774683A002020737097
:0E20D000726561643A00202042504D733A0060
:107800000C94343C0C94513C0C94513C0C94513CE1
:107810000C94513C0C94513C0C94513C0C94513CB4
:107820000C94513C0C94513C0C94513C0C94513CA4
:107830000C94513C0C94513C0C94513C0C94513C94
:107840000C94513C0C94513C0C94513C0C94513C84
:107850000C94513C0C94513C0C94513C0C94513C74
:107860000C94513C0C94513C11241FBECFEFD8E036
:10787000DEBFCDBF11E0A0E0B1E0ECE9FFE702C060
:1078800005900D92A230B107D9F712E0A2E0B1E065
:1078900001C01D92AD30B107E1F70E942D3D0C945F
:1078A000CC3F0C94003C982F959595959595959582
:1078B000905D8F708A307CF0282F295A8091C0000B
:1078C00085FFFCCF9093C6008091C00085FFFCCF60
:1078D0002093C6000895282F205DF0CF982F809127
:1078E000C00085FFFCCF9093C6000895EF92FF92F1
:1078F0000F931F93EE24FF2487018091C00087FD22
:1079000017C00894E11CF11C011D111D81E4E8164B
:1079100082E4F8068FE0080780E0180770F3E09132
:107920000401F091050109958091C00087FFE9CF1E
:107930008091C6001F910F91FF90EF9008950E94D3
:10794000763C982F8091C00085FFFCCF9093C600B5
:1079500091362CF490330CF09053892F089597555D
:10796000892F08951F930E949F3C182F0E949F3CCF
:107970001295107F810F1F9108951F93182F882350
:1079800021F00E94763C1150E1F71F9108951F935A
:10799000182F0E94763C803249F0809103018F5F5E
:1079A000809303018530C1F01F9108958091C0003C
:1079B00085FFFCCF84E18093C6008091C00085FFE5
:1079C000FCCF1093C6008091C00085FFFCCF80E102
:1079D0008093C6001F910895E0910401F091050184
:1079E00009951F9108950E94763C803241F0809164
:1079F00003018F5F80930301853081F008958091AA
:107A0000C00085FFFCCF84E18093C6008091C00058
:107A100085FFFCCF80E18093C6000895E0910401CA
:107A2000F09105010995089540E951E08823A1F0FE
:107A30002D9A28EE33E0FA013197F1F721503040CA
:107A4000D1F72D9828EE33E0FA013197F1F7215064
:107A50003040D1F7815061F708953F924F925F9285
:107A60006F927F928F929F92AF92BF92CF92DF924E
:107A7000EF92FF920F931F93CF93DF93000080E16B
:107A80008093C4001092C50088E18093C10086E015
:107A90008093C2005098589A259A81E00E94143D24
:107AA00024E1F22E9EE1E92E85E9D82E0FE0C02ECA
:107AB00010E1B12EAA24A394B1E49B2EA6E58A2E50
:107AC000F2E57F2EE0E26E2E79E4572E63E5462E36
:107AD00050E5352E0E94763C8033B1F18133B9F107
:107AE000803409F46FC0813409F476C0823409F41B
:107AF00085C0853409F488C0803531F1823521F1A3
:107B0000813511F1853509F485C0863509F48DC0BC
:107B1000843609F496C0843709F403C1853709F423
:107B200072C1863709F466C0809103018F5F80932C
:107B30000301853079F6E0910401F0910501099582
:107B40000E94763C803351F60E94F33CC3CF0E94E2
:107B5000763C803249F78091C00085FFFCCFF092DF
:107B6000C6008091C00085FFFCCF9092C600809136
:107B7000C00085FFFCCF8092C6008091C00085FFC9
:107B8000FCCF7092C6008091C00085FFFCCF609250
:107B9000C6008091C00085FFFCCF5092C600809146
:107BA000C00085FFFCCF4092C6008091C00085FFD9
:107BB000FCCF3092C6008091C00085FFFCCFB09210
:107BC000C60088CF0E94763C863808F4BDCF0E945C
:107BD000763C0E94F33C7ECF0E94763C803809F4CC
:107BE0009CC0813809F40BC1823809F43CC1883942
:107BF00009F48FC080E00E94C73C6CCF84E10E94F2
:107C0000BD3C0E94F33C66CF85E00E94BD3C0E94D3
:107C1000F33C60CF0E94763C809306010E94763C44
:107C2000809307010E94F33C55CF0E94763C80333D
:107C300009F41DC183E00E94BD3C80E00E94C73C66
:107C400049CF0E94763C809309020E94763C809343
:107C5000080280910C028E7F80930C020E94763C79
:107C6000853409F415C18091080290910902892B8D
:107C700089F000E010E00E94763CF801E85FFE4FDA
:107C800080830F5F1F4F80910802909109020817AF
:107C9000190788F30E94763C803209F045CF809125
:107CA0000C0280FF01C16091060170910701660F0F
:107CB000771F7093070160930601A0910802B091AD
:107CC00009021097C9F0E8E0F1E09B01AD014E0F09
:107CD0005F1FF999FECF32BD21BD819180BDFA9A17
:107CE000F99A2F5F3F4FE417F50799F76A0F7B1F4B
:107CF00070930701609306018091C00085FFFCCF5F
:107D0000F092C6008091C00085FFFCCFB092C60003
:107D1000E1CE83E00E94C73CDDCE82E00E94C73CFA
:107D2000D9CE0E94763C809309020E94763C8093D3
:107D300008028091060190910701880F991F909386
:107D40000701809306010E94763C853409F4A6C0A1
:107D500080910C028E7F80930C020E94763C8032D0
:107D600009F0B8CE8091C00085FFFCCFF092C6002C
:107D7000609108027091090261157105B9F140E046
:107D800050E080910C02A82FA170B82FB27011C0E2
:107D9000BB2309F45CC0E0910601F0910701319624
:107DA000F0930701E09306014F5F5F4F46175707B7
:107DB000E8F4AA2369F3F999FECF209106013091E6
:107DC000070132BD21BDF89A90B58091C00085FFB2
:107DD000FCCF9093C6002F5F3F4F30930701209355
:107DE00006014F5F5F4F4617570718F38091C00099
:107DF00085FDE5CE8091C00085FFF8CFE0CE81E023
:107E00000E94C73C67CE0E94763C803209F08CCE3F
:107E10008091C00085FFFCCFF092C6008091C00029
:107E200085FFFCCFE092C6008091C00085FFFCCFAB
:107E3000D092C6008091C00085FFFCCFC092C600E2
:107E40008091C00085FFFCCFB092C60043CEE09188
:107E50000601F091070194918091C00085FFFCCF4D
:107E60009093C6009CCF80E10E94C73C33CE0E9415
:107E7000763C0E94763C182F0E94763C112309F430
:107E800083C0113009F484C08FE00E94C73C22CE29
:107E900080910C02816080930C02E5CE80910C02EF
:107EA000816080930C0259CF809107018823880F4D
:107EB000880B8A2180930B02809106019091070123
:107EC000880F991F90930701809306018091080203
:107ED00080FF09C080910802909109020196909359
:107EE000090280930802F894F999FECF1127E091D6
:107EF0000601F0910701C8E0D1E08091080290915D
:107F00000902103091F40091570001700130D9F34B
:107F100003E000935700E89500915700017001308D
:107F2000D9F301E100935700E89509901990009169
:107F3000570001700130D9F301E000935700E89534
:107F40001395103498F011270091570001700130FB
:107F5000D9F305E000935700E895009157000170B0
:107F60000130D9F301E100935700E895329602976A
:107F700009F0C7CF103011F00296E5CF112480919F
:107F8000C00085FFB9CEBCCE8EE10E94C73CA2CD19
:0E7F900085E90E94C73C9ECDF894FFCF80008B
:00000001FF
